{
  "_format": "hh-sol-artifact-1",
  "contractName": "Crowdfunding",
  "sourceName": "contracts/Crowdfunding.sol",
  "abi": [
    {
      "anonymous": false,
      "inputs": [
        {
          "indexed": true,
          "internalType": "uint256",
          "name": "campaignId",
          "type": "uint256"
        },
        {
          "indexed": true,
          "internalType": "address",
          "name": "owner",
          "type": "address"
        },
        {
          "indexed": false,
          "internalType": "string",
          "name": "title",
          "type": "string"
        },
        {
          "indexed": false,
          "internalType": "uint256",
          "name": "target",
          "type": "uint256"
        },
        {
          "indexed": false,
          "internalType": "uint256",
          "name": "deadline",
          "type": "uint256"
        },
        {
          "indexed": false,
          "internalType": "string",
          "name": "image",
          "type": "string"
        }
      ],
      "name": "CampaignCreated",
      "type": "event"
    },
    {
      "inputs": [
        {
          "internalType": "uint256",
          "name": "",
          "type": "uint256"
        }
      ],
      "name": "campaigns",
      "outputs": [
        {
          "internalType": "address",
          "name": "owner",
          "type": "address"
        },
        {
          "internalType": "string",
          "name": "title",
          "type": "string"
        },
        {
          "internalType": "string",
          "name": "description",
          "type": "string"
        },
        {
          "internalType": "uint256",
          "name": "target",
          "type": "uint256"
        },
        {
          "internalType": "uint256",
          "name": "deadline",
          "type": "uint256"
        },
        {
          "internalType": "uint256",
          "name": "amountCollected",
          "type": "uint256"
        },
        {
          "internalType": "string",
          "name": "image",
          "type": "string"
        }
      ],
      "stateMutability": "view",
      "type": "function"
    },
    {
      "inputs": [
        {
          "internalType": "string",
          "name": "_title",
          "type": "string"
        },
        {
          "internalType": "string",
          "name": "_description",
          "type": "string"
        },
        {
          "internalType": "uint256",
          "name": "_target",
          "type": "uint256"
        },
        {
          "internalType": "uint256",
          "name": "_deadline",
          "type": "uint256"
        },
        {
          "internalType": "string",
          "name": "_image",
          "type": "string"
        }
      ],
      "name": "createCampaign",
      "outputs": [
        {
          "internalType": "uint256",
          "name": "",
          "type": "uint256"
        }
      ],
      "stateMutability": "nonpayable",
      "type": "function"
    },
    {
      "inputs": [
        {
          "internalType": "uint256",
          "name": "_id",
          "type": "uint256"
        }
      ],
      "name": "donateToCampaign",
      "outputs": [],
      "stateMutability": "payable",
      "type": "function"
    },
    {
      "inputs": [
        {
          "internalType": "uint256",
          "name": "_id",
          "type": "uint256"
        }
      ],
      "name": "getCampaignById",
      "outputs": [
        {
          "internalType": "address",
          "name": "owner",
          "type": "address"
        },
        {
          "internalType": "string",
          "name": "title",
          "type": "string"
        },
        {
          "internalType": "string",
          "name": "description",
          "type": "string"
        },
        {
          "internalType": "uint256",
          "name": "target",
          "type": "uint256"
        },
        {
          "internalType": "uint256",
          "name": "deadline",
          "type": "uint256"
        },
        {
          "internalType": "uint256",
          "name": "amountCollected",
          "type": "uint256"
        },
        {
          "internalType": "string",
          "name": "image",
          "type": "string"
        },
        {
          "internalType": "address[]",
          "name": "donators",
          "type": "address[]"
        },
        {
          "internalType": "uint256[]",
          "name": "donations",
          "type": "uint256[]"
        }
      ],
      "stateMutability": "view",
      "type": "function"
    },
    {
      "inputs": [],
      "name": "getCampaignIds",
      "outputs": [
        {
          "internalType": "uint256[]",
          "name": "",
          "type": "uint256[]"
        }
      ],
      "stateMutability": "view",
      "type": "function"
    },
    {
      "inputs": [
        {
          "internalType": "uint256",
          "name": "_id",
          "type": "uint256"
        }
      ],
      "name": "getDonators",
      "outputs": [
        {
          "internalType": "address[]",
          "name": "",
          "type": "address[]"
        },
        {
          "internalType": "uint256[]",
          "name": "",
          "type": "uint256[]"
        }
      ],
      "stateMutability": "view",
      "type": "function"
    },
    {
      "inputs": [],
      "name": "numberOfCampaigns",
      "outputs": [
        {
          "internalType": "uint256",
          "name": "",
          "type": "uint256"
        }
      ],
      "stateMutability": "view",
      "type": "function"
    }
  ],
  "bytecode": "0x6080604052600060015534801561001557600080fd5b5061191b806100256000396000f3fe6080604052600436106100705760003560e01c806342a4fda81161004e57806342a4fda81461012157806347c9e8f61461013d578063d4e3dd6f14610168578063e6ffcaa1146101a557610070565b806307ca140d146100755780630fa91fa9146100a0578063141961bc146100de575b600080fd5b34801561008157600080fd5b5061008a6101ea565b6040516100979190610c4a565b60405180910390f35b3480156100ac57600080fd5b506100c760048036038101906100c29190610ca5565b6101f0565b6040516100d5929190610e80565b60405180910390f35b3480156100ea57600080fd5b5061010560048036038101906101009190610ca5565b610300565b6040516101189796959493929190610f56565b60405180910390f35b61013b60048036038101906101369190610ca5565b6104fa565b005b34801561014957600080fd5b50610152610719565b60405161015f9190610fda565b60405180910390f35b34801561017457600080fd5b5061018f600480360381019061018a9190611131565b6107ac565b60405161019c9190610c4a565b60405180910390f35b3480156101b157600080fd5b506101cc60048036038101906101c79190610ca5565b610926565b6040516101e199989796959493929190611200565b60405180910390f35b60015481565b6060806000808481526020019081526020016000206007016000808581526020019081526020016000206008018180548060200260200160405190810160405280929190818152602001828054801561029e57602002820191906000526020600020905b8160009054906101000a900473ffffffffffffffffffffffffffffffffffffffff1673ffffffffffffffffffffffffffffffffffffffff1681526020019060010190808311610254575b50505050509150808054806020026020016040519081016040528092919081815260200182805480156102f057602002820191906000526020600020905b8154815260200190600101908083116102dc575b5050505050905091509150915091565b60006020528060005260406000206000915090508060000160009054906101000a900473ffffffffffffffffffffffffffffffffffffffff1690806001018054610349906112df565b80601f0160208091040260200160405190810160405280929190818152602001828054610375906112df565b80156103c25780601f10610397576101008083540402835291602001916103c2565b820191906000526020600020905b8154815290600101906020018083116103a557829003601f168201915b5050505050908060020180546103d7906112df565b80601f0160208091040260200160405190810160405280929190818152602001828054610403906112df565b80156104505780601f1061042557610100808354040283529160200191610450565b820191906000526020600020905b81548152906001019060200180831161043357829003601f168201915b505050505090806003015490806004015490806005015490806006018054610477906112df565b80601f01602080910402602001604051908101604052809291908181526020018280546104a3906112df565b80156104f05780601f106104c5576101008083540402835291602001916104f0565b820191906000526020600020905b8154815290600101906020018083116104d357829003601f168201915b5050505050905087565b6000341161053d576040517f08c379a00000000000000000000000000000000000000000000000000000000081526004016105349061135c565b60405180910390fd5b6000806000838152602001908152602001600020905080600401544210610599576040517f08c379a0000000000000000000000000000000000000000000000000000000008152600401610590906113c8565b60405180910390fd5b80600701339080600181540180825580915050600190039060005260206000200160009091909190916101000a81548173ffffffffffffffffffffffffffffffffffffffff021916908373ffffffffffffffffffffffffffffffffffffffff1602179055508060080134908060018154018082558091505060019003906000526020600020016000909190919091505560008160000160009054906101000a900473ffffffffffffffffffffffffffffffffffffffff1673ffffffffffffffffffffffffffffffffffffffff163460405161067390611419565b60006040518083038185875af1925050503d80600081146106b0576040519150601f19603f3d011682016040523d82523d6000602084013e6106b5565b606091505b50509050806106f9576040517f08c379a00000000000000000000000000000000000000000000000000000000081526004016106f09061147a565b60405180910390fd5b3482600501600082825461070d91906114c9565b92505081905550505050565b6060600060015467ffffffffffffffff81111561073957610738611006565b5b6040519080825280602002602001820160405280156107675781602001602082028036833780820191505090505b50905060005b6001548110156107a4578082828151811061078b5761078a6114fd565b5b602002602001018181525050808060010191505061076d565b508091505090565b60004283116107f0576040517f08c379a00000000000000000000000000000000000000000000000000000000081526004016107e790611578565b60405180910390fd5b600080600060015481526020019081526020016000209050338160000160006101000a81548173ffffffffffffffffffffffffffffffffffffffff021916908373ffffffffffffffffffffffffffffffffffffffff1602179055508681600101908161085c9190611744565b508581600201908161086e9190611744565b50848160030181905550838160040181905550600081600501819055508281600601908161089c9190611744565b503373ffffffffffffffffffffffffffffffffffffffff166001547ff9bef86f202a8a7ac47c00e895ac2c191749da86fd955af550e31f9a52207bdb898888886040516108ec9493929190611816565b60405180910390a36001600081548092919061090790611869565b91905055506001805461091a91906118b1565b91505095945050505050565b60006060806000806000606080606060008060008c815260200190815260200160002090508060000160009054906101000a900473ffffffffffffffffffffffffffffffffffffffff16816001018260020183600301548460040154856005015486600601876007018860080187805461099f906112df565b80601f01602080910402602001604051908101604052809291908181526020018280546109cb906112df565b8015610a185780601f106109ed57610100808354040283529160200191610a18565b820191906000526020600020905b8154815290600101906020018083116109fb57829003601f168201915b50505050509750868054610a2b906112df565b80601f0160208091040260200160405190810160405280929190818152602001828054610a57906112df565b8015610aa45780601f10610a7957610100808354040283529160200191610aa4565b820191906000526020600020905b815481529060010190602001808311610a8757829003601f168201915b50505050509650828054610ab7906112df565b80601f0160208091040260200160405190810160405280929190818152602001828054610ae3906112df565b8015610b305780601f10610b0557610100808354040283529160200191610b30565b820191906000526020600020905b815481529060010190602001808311610b1357829003601f168201915b5050505050925081805480602002602001604051908101604052809291908181526020018280548015610bb857602002820191906000526020600020905b8160009054906101000a900473ffffffffffffffffffffffffffffffffffffffff1673ffffffffffffffffffffffffffffffffffffffff1681526020019060010190808311610b6e575b5050505050915080805480602002602001604051908101604052809291908181526020018280548015610c0a57602002820191906000526020600020905b815481526020019060010190808311610bf6575b50505050509050995099509950995099509950995099509950509193959799909294969850565b6000819050919050565b610c4481610c31565b82525050565b6000602082019050610c5f6000830184610c3b565b92915050565b6000604051905090565b600080fd5b600080fd5b610c8281610c31565b8114610c8d57600080fd5b50565b600081359050610c9f81610c79565b92915050565b600060208284031215610cbb57610cba610c6f565b5b6000610cc984828501610c90565b91505092915050565b600081519050919050565b600082825260208201905092915050565b6000819050602082019050919050565b600073ffffffffffffffffffffffffffffffffffffffff82169050919050565b6000610d2982610cfe565b9050919050565b610d3981610d1e565b82525050565b6000610d4b8383610d30565b60208301905092915050565b6000602082019050919050565b6000610d6f82610cd2565b610d798185610cdd565b9350610d8483610cee565b8060005b83811015610db5578151610d9c8882610d3f565b9750610da783610d57565b925050600181019050610d88565b5085935050505092915050565b600081519050919050565b600082825260208201905092915050565b6000819050602082019050919050565b610df781610c31565b82525050565b6000610e098383610dee565b60208301905092915050565b6000602082019050919050565b6000610e2d82610dc2565b610e378185610dcd565b9350610e4283610dde565b8060005b83811015610e73578151610e5a8882610dfd565b9750610e6583610e15565b925050600181019050610e46565b5085935050505092915050565b60006040820190508181036000830152610e9a8185610d64565b90508181036020830152610eae8184610e22565b90509392505050565b610ec081610d1e565b82525050565b600081519050919050565b600082825260208201905092915050565b60005b83811015610f00578082015181840152602081019050610ee5565b60008484015250505050565b6000601f19601f8301169050919050565b6000610f2882610ec6565b610f328185610ed1565b9350610f42818560208601610ee2565b610f4b81610f0c565b840191505092915050565b600060e082019050610f6b600083018a610eb7565b8181036020830152610f7d8189610f1d565b90508181036040830152610f918188610f1d565b9050610fa06060830187610c3b565b610fad6080830186610c3b565b610fba60a0830185610c3b565b81810360c0830152610fcc8184610f1d565b905098975050505050505050565b60006020820190508181036000830152610ff48184610e22565b905092915050565b600080fd5b600080fd5b7f4e487b7100000000000000000000000000000000000000000000000000000000600052604160045260246000fd5b61103e82610f0c565b810181811067ffffffffffffffff8211171561105d5761105c611006565b5b80604052505050565b6000611070610c65565b905061107c8282611035565b919050565b600067ffffffffffffffff82111561109c5761109b611006565b5b6110a582610f0c565b9050602081019050919050565b82818337600083830152505050565b60006110d46110cf84611081565b611066565b9050828152602081018484840111156110f0576110ef611001565b5b6110fb8482856110b2565b509392505050565b600082601f83011261111857611117610ffc565b5b81356111288482602086016110c1565b91505092915050565b600080600080600060a0868803121561114d5761114c610c6f565b5b600086013567ffffffffffffffff81111561116b5761116a610c74565b5b61117788828901611103565b955050602086013567ffffffffffffffff81111561119857611197610c74565b5b6111a488828901611103565b94505060406111b588828901610c90565b93505060606111c688828901610c90565b925050608086013567ffffffffffffffff8111156111e7576111e6610c74565b5b6111f388828901611103565b9150509295509295909350565b600061012082019050611216600083018c610eb7565b8181036020830152611228818b610f1d565b9050818103604083015261123c818a610f1d565b905061124b6060830189610c3b565b6112586080830188610c3b565b61126560a0830187610c3b565b81810360c08301526112778186610f1d565b905081810360e083015261128b8185610d64565b90508181036101008301526112a08184610e22565b90509a9950505050505050505050565b7f4e487b7100000000000000000000000000000000000000000000000000000000600052602260045260246000fd5b600060028204905060018216806112f757607f821691505b60208210810361130a576113096112b0565b5b50919050565b7f446f6e6174696f6e206d7573742062652067726561746572207468616e203000600082015250565b6000611346601f83610ed1565b915061135182611310565b602082019050919050565b6000602082019050818103600083015261137581611339565b9050919050565b7f43616d706169676e2068617320656e6465640000000000000000000000000000600082015250565b60006113b2601283610ed1565b91506113bd8261137c565b602082019050919050565b600060208201905081810360008301526113e1816113a5565b9050919050565b600081905092915050565b50565b60006114036000836113e8565b915061140e826113f3565b600082019050919050565b6000611424826113f6565b9150819050919050565b7f4661696c656420746f2073656e64204574686572000000000000000000000000600082015250565b6000611464601483610ed1565b915061146f8261142e565b602082019050919050565b6000602082019050818103600083015261149381611457565b9050919050565b7f4e487b7100000000000000000000000000000000000000000000000000000000600052601160045260246000fd5b60006114d482610c31565b91506114df83610c31565b92508282019050808211156114f7576114f661149a565b5b92915050565b7f4e487b7100000000000000000000000000000000000000000000000000000000600052603260045260246000fd5b7f446561646c696e65206d75737420626520696e20746865206675747572650000600082015250565b6000611562601e83610ed1565b915061156d8261152c565b602082019050919050565b6000602082019050818103600083015261159181611555565b9050919050565b60008190508160005260206000209050919050565b60006020601f8301049050919050565b600082821b905092915050565b6000600883026115fa7fffffffffffffffffffffffffffffffffffffffffffffffffffffffffffffffff826115bd565b61160486836115bd565b95508019841693508086168417925050509392505050565b6000819050919050565b600061164161163c61163784610c31565b61161c565b610c31565b9050919050565b6000819050919050565b61165b83611626565b61166f61166782611648565b8484546115ca565b825550505050565b600090565b611684611677565b61168f818484611652565b505050565b5b818110156116b3576116a860008261167c565b600181019050611695565b5050565b601f8211156116f8576116c981611598565b6116d2846115ad565b810160208510156116e1578190505b6116f56116ed856115ad565b830182611694565b50505b505050565b600082821c905092915050565b600061171b600019846008026116fd565b1980831691505092915050565b6000611734838361170a565b9150826002028217905092915050565b61174d82610ec6565b67ffffffffffffffff81111561176657611765611006565b5b61177082546112df565b61177b8282856116b7565b600060209050601f8311600181146117ae576000841561179c578287015190505b6117a68582611728565b86555061180e565b601f1984166117bc86611598565b60005b828110156117e4578489015182556001820191506020850194506020810190506117bf565b8683101561180157848901516117fd601f89168261170a565b8355505b6001600288020188555050505b505050505050565b600060808201905081810360008301526118308187610f1d565b905061183f6020830186610c3b565b61184c6040830185610c3b565b818103606083015261185e8184610f1d565b905095945050505050565b600061187482610c31565b91507fffffffffffffffffffffffffffffffffffffffffffffffffffffffffffffffff82036118a6576118a561149a565b5b600182019050919050565b60006118bc82610c31565b91506118c783610c31565b92508282039050818111156118df576118de61149a565b5b9291505056fea264697066735822122098b53923f9bc6e39bc4dc0b1878494433dd32defd4da5ab8be4c72ac0255ea4f64736f6c63430008180033",
  "linkReferences": {},
  "deployedLinkReferences": {}
}